:100000003A485847574F5F4353194A5A4C5C48582F
:1000100044543D405012495946563B391D3F103F0C
:10002000113F134D5D89129912B91234A99F1234F0
:10003000C912D912F91234E99F12348B129B12BBE8
:100040001234AB9F1234CB12DB12FB1234EB9F1233
:1000500034C31234D312F31234E39F123484129453
:1000600012B41234A49F1234C412D412F41234E421
:100070009F12341C120812781234689F123407122F
:10008000771234679F123485129512B51234A59FEA
:100090001234C512D512F51234E59F12340F127FB7
:1000A00012346F9F123481129112B11234A19F1237
:1000B00034C112D112F11234E19F12341083123480
:1000C00010931210B3123410A39F1234118C1234F7
:1000D000119C1211BC123411AC9F123411831234D2
:1000E00011931211B3123411A39F12348C12349C49
:1000F00012BC1234AC9F1234108C1234109C1210AB
:10010000BC123410AC9F12340312731234639F126A
:10011000343CFF0A127A12346A9F12348812981201
:10012000B81234A89F1234C812D812F81234E89FBB
:1001300012340C127C12346C9F12340E127E123464
:100140006E9F12349D12BD1234AD9F1234861296EA
:1001500012B61234A69F1234C612D612F61234E624
:100160009F1234CC1234DC12FC1234EC9F12341087
:10017000CE123410DE1210FE123410EE9F1234CE66
:100180001234DE12FE1234EE9F12348E12349E129E
:10019000BE1234AE9F1234108E1234109E1210BE56
:1001A000123410AE9F123432E43341301F31210833
:1001B00012781234689F12340412741234649F123D
:1001C000340012701234609F12348A129A12BA12DA
:1001D00034AA9F1234CA12DA12FA1234EA9F123485
:1001E0001A120912791234699F12340612761234E7
:1001F000669F1234C212D212F21234E29F1234827B
:10020000129212B21234A29F12349712B71234A76C
:100210009F1234D712F71234E79F1234DD12FD1209
:1002200034ED9F123410DF1210FF123410EF9F12C2
:1002300034DF12FF1234EF9F12349F12BF1234AF1B
:100240009F1234109F1210BF123410AF9F123480CF
:10025000129012B01234A09F1234C012D012F012B9
:1002600034E09F12348312349312B31234A39F12DA
:10027000340D127D12346D9F12341E891E121F8997
:100280001F4334FF36FF35FF37FF24FE252227FAB0
:100290002C1E2EF6221A24F22F1625EE23122DEAFA
:1002A0002B0E26E62A0A20E221068DDE280229DA14
:1002B0001024FFFC1025FFF81027FFF4102CFFF08E
:1002C000102EFFEC1022FFE81024FFE4102FFFE0B7
:1002D0001025FFDC1023FFD8102DFFD4102BFFD0EA
:1002E0001026FFCC102AFFC816FFC51021FFC1172A
:1002F000FFBE1028FFBA1029FFB6AB84AB80AB81DC
:10030000AB82AB83AB09AB17AB8878AB8888AB8982
:100310001234AB89EDCCABA4ABA0ABA1ABA2ABA329
:10032000AB29AB37ABA878ABA888ABA91234ABA983
:10033000EDCCABC4ABC1ABC2ABC3AB49AB57ABC8E5
:1003400078ABC888ABC91234ABC9EDCCABE4ABE138
:10035000ABE2ABE3AB69AB77ABE878ABE888ABE992
:100360001234ABE9EDCCAB94AB91AB93AB9809AB4A
:1003700098F7AB9878AB9888AB991234AB99EDCCE1
:10038000ABB4ABB1ABB3ABB809ABB8F7ABB878AB08
:10039000B888ABB91234ABB9EDCCABD4ABD3ABD8D6
:1003A00009ABD8F7ABD878ABD888ABD91234ABD976
:1003B000EDCCABF4ABF3ABF809ABF8F7ABF878AB3B
:1003C000F888ABF91234ABF9EDCCAB86ABA5ABCB6F
:1003D000ABE6AB96ABB5ABDBABF6A68D0E56A68DFA
:0A03E000E9EAA69D0E4EA69DE9E293
:00000001FF
